:100000000C942A000C943F000C943F000C943F0089
:100010000C943F000C943F000C943F000C943F0064
:100020000C943F000C943F000C943F000C943F0054
:100030000C943F000C943F000C943F000C943F0044
:100040000C943F000C943F000C943F000C943F0034
:100050000C943F0011241FBECFE5D8E0DEBFCDBF1A
:1000600010E0A0E6B0E0E6E4F6E002C005900D92F4
:10007000A437B107D9F70E9441000C9421030C94D6
:1000800000006F927F928F929F92AF92BF92CF9219
:10009000DF92EF92FF920F931F93CF93DF93CDB731
:1000A000DEB760970FB6F894DEBF0FBECDBF8FEFFF
:1000B00081BB87BB84BB8ABB80E1E4E6F0E0DE0164
:1000C000119601900D928A95E1F7809160009091D0
:1000D0006100181619060CF4F8C18FC20197861535
:1000E000970509F4D9C0D8018D919C91019709F029
:1000F00093C086E990E0FBBBA3EFB1E01197F1F765
:1001000000C00000EBBBA3EFB1E01197F1F700C016
:1001100000007BBBA3EFB1E01197F1F700C0000036
:100120006BBBA3EFB1E01197F1F700C0000001979E
:1001300011F78FE493EC0197F1F700C0000089E11B
:1001400090E0FBBBA3EFB1E01197F1F700C0000016
:10015000EBBBA3EFB1E01197F1F700C000007BBB50
:10016000A3EFB1E01197F1F700C000006BBBA3EF64
:10017000B1E01197F1F700C00000019711F78FE48B
:1001800093EC0197F1F700C0000088E390E068BBB2
:10019000A6E7B1E01197F1F700C0000078BBA6E731
:1001A000B1E01197F1F700C00000E8BBA6E7B1E0AD
:1001B0001197F1F700C00000F8BBA6E7B1E0119776
:1001C000F1F700C00000019711F789E190E06BBBE7
:1001D000A3EFB1E01197F1F700C000007BBBA3EFE4
:1001E000B1E01197F1F700C00000EBBBA3EFB1E065
:1001F0001197F1F700C00000FBBBA3EFB1E011972E
:10020000F1F700C00000019711F78FE493EC01971C
:10021000F1F700C00000EBC189E190E06BBBA3EFF8
:10022000B1E01197F1F700C000007BBBA3EFB1E094
:100230001197F1F700C00000EBBBA3EFB1E01197FD
:10024000F1F700C00000FBBBA3EFB1E01197F1F79D
:1002500000C00000019711F7CAC168BBA6E7B1E072
:100260001197F1F700C0000078BBA6E7B1E0119745
:10027000F1F700C00000E8BBA6E7B1E01197F1F785
:1002800000C00000F8BBA6E7B1E01197F1F700C08D
:100290000000019711F7C2C0D8018D919C91019780
:1002A00051F0809162009091630001971816190631
:1002B0000CF4AFC0B3C086E990E0FBBBA3EFB1E0A4
:1002C0001197F1F700C00000EBBBA3EFB1E011976D
:1002D000F1F700C000007BBBA3EFB1E01197F1F78D
:1002E00000C000006BBBA3EFB1E01197F1F700C0B5
:1002F0000000019711F78FE493EC0197F1F700C02C
:10030000000089E190E0FBBBA3EFB1E01197F1F7AA
:1003100000C00000EBBBA3EFB1E01197F1F700C004
:1003200000007BBBA3EFB1E01197F1F700C0000024
:100330006BBBA3EFB1E01197F1F700C0000001978C
:1003400011F78FE493EC0197F1F700C00000809162
:100350006200909163000197181619065CF15EC067
:1003600058BBA6E7B1E01197F1F700C0000048BB09
:10037000A6E7B1E01197F1F700C0000038BBA6E78F
:10038000B1E01197F1F700C0000028BBA6E7B1E08B
:100390001197F1F700C00000019711F7BFEFEB1ABA
:1003A000FB0A80916200909163000197E816F906BC
:1003B0001CF034C0E12CF12C88E390E0D1CF58BB85
:1003C000A6E7B1E01197F1F700C0000048BBA6E72F
:1003D000B1E01197F1F700C0000038BBA6E7B1E02B
:1003E0001197F1F700C0000028BBA6E7B1E0119714
:1003F000F1F700C00000019711F7BFEFEB1AFB0AFD
:1004000080916200909163000197E816F9061CF054
:1004100005C0E12CF12C88E390E0D1CF8FEF681A72
:10042000780A80916200909163000E5F1F4F6816FA
:1004300079060CF453CEDEC0C2BAA6E7B1E011973C
:10044000F1F700C00000D2BAA6E7B1E01197F1F7CA
:1004500000C00000B2BAA6E7B1E01197F1F700C002
:100460000000A2BAA6E7B1E01197F1F700C00000C2
:10047000019711F789E190E06BBBA3EFB1E0119711
:10048000F1F700C000007BBBA3EFB1E01197F1F7DB
:1004900000C00000EBBBA3EFB1E01197F1F700C083
:1004A0000000FBBBA3EFB1E01197F1F700C0000023
:1004B000019711F7BFEF8B1A9B0A80916000909112
:1004C000610088169906BCF098C0812C912CF1E04F
:1004D000E4E072E068E05F2F4E2F372F262F6894FC
:1004E000CC24C7F86894DD24D5F86894BB24B6F80A
:1004F0006894AA24A4F88091620090916300181671
:1005000019060CF077C08E010F5F1F4F612C712C04
:10051000E5CD5BBBE3EFF1E03197F1F700C0000000
:100520004BBBA3EFB1E01197F1F700C000003BBB5C
:10053000E3EFF1E03197F1F700C000002BBBA3EF30
:10054000B1E01197F1F700C00000019711F763E0E7
:1005500070E050E140E430E220E821C052BBE6E721
:10056000F1E03197F1F700C0000042BBA6E7B1E02F
:100570001197F1F700C0000032BBE6E7F1E03197D8
:10058000F1F700C0000022BBA6E7B1E01197F1F738
:1005900000C00000019711F76150710919F089E35B
:1005A00090E0DCCF89E190E051E044E032E028E0E7
:1005B0005BBBE3EFF1E03197F1F700C000004BBB0C
:1005C000A3EFB1E01197F1F700C000003BBBE3EFF0
:1005D000F1E03197F1F700C000002BBBA3EFB1E0D1
:1005E0001197F1F700C00000019711F70DC088E3E3
:1005F00090E033CE89E390E01FCF89E190E058E0AE
:1006000042E034E021E085CFEFE4F3EC3197F1F7FD
:1006100000C0000080E090E060960FB6F894DEBF66
:100620000FBECDBFDF91CF911F910F91FF90EF9043
:10063000DF90CF90BF90AF909F908F907F906F9002
:060640000895F894FFCFBD
:100646000300080001000100010001000100010093
:04065600010001009E
:00000001FF
