S00E00004445425547362E7372656379
S11300000C942A000C9434000C9434000C943400A6
S11300100C9434000C9434000C9434000C9434008C
S11300200C9434000C9434000C9434000C9434007C
S11300300C9434000C9434000C9434000C9434006C
S11300400C9434000C9434000C9434000C9434005C
S11300500C94340011241FBECFE5D8E0DEBFCDBF21
S11300600E94E8020C9466030C9400000F931F9303
S11300708B019C01DC01CB0180569940A109B10997
S1130080813A984BA140B10570F580E090E0DC0125
S1130090801B910BA20BB30B880F991FAA1FBB1FC8
S11300A0880F991FAA1FBB1F880F991FAA1FBB1F68
S11300B0BC01CD01605C7D4B804F9F4F000F111F31
S11300C0221F331F000F111F221F331FA901980184
S11300D0220F331F441F551F220F331F441F551F68
S11300E00E94440302C026E030E029B930BD1F91CC
S11300F00F91089528E12AB926E820BD1BB80E9473
S1130100360008955F9BFECF8CB10895CF93DF93A3
S1130110DA01FA013A96EA01229641E050E011969A
S11301205C934E9332979C0121703078332334F4DE
S1130130215031092E6F3F6F2F5F3F4F3183208352
S11301409C01992314F42F5F3F4FC901959587951E
S1130150EC17FD0721F7CB0181709078992324F4E3
S113016001978E6F9F6F01961F969C938E931E9797
S1130170CB0177230CF4019695958795817090783F
S1130180992324F401978E6F9F6F01961D969C937B
S11301908E931C97CB0199230CF403969595879520
S11301A09595879581709078992324F401978E6FA3
S11301B09F6F01961B969C938E931A97DF91CF9114
S11301C008950F931F93CF93DF938C018FEF81BB1F
S11301D087BB84BB8ABBF801D8011E9661E054E05A
S11301E042E098E0219131912130310509F097C026
S11301F029E130E09BBBC6E7D1E02197F1F700C0CD
S113020000004BBBC6E7D1E02197F1F700C0000026
S11302105BBBC6E7D1E02197F1F700C000006BBBE0
S1130220C6E7D1E02197F1F700C000002150310961
S113023009F7CFE4D3EC2197F1F700C0000026E9D9
S113024030E06BBBC6E7D1E02197F1F700C00000B6
S11302505BBBC6E7D1E02197F1F700C000004BBBC0
S1130260C6E7D1E02197F1F700C000009BBBC6E7C9
S1130270D1E02197F1F700C000002150310909F7BE
S1130280CFE4D3EC2197F1F700C0000029E130E07E
S11302906BBBC6E7D1E02197F1F700C000005BBB60
S11302A0C6E7D1E02197F1F700C000004BBBC6E7D9
S11302B0D1E02197F1F700C000009BBBC6E7D1E075
S11302C02197F1F700C000002150310909F7CFE46C
S11302D0D3EC2197F1F700C0000028E330E068BBBD
S11302E0C6E7D1E02197F1F700C0000058BBC6E78C
S11302F0D1E02197F1F700C0000048BBC6E7D1E088
S11303002197F1F700C0000098BBC6E7D1E0219720
S1130310F1F700C000002150310909F7FDC028E3BE
S113032030E068BBC6E7D1E02197F1F700C00000D8
S113033058BBC6E7D1E02197F1F700C0000048BBE5
S1130340C6E7D1E02197F1F700C0000098BBC6E7EB
S1130350D1E02197F1F700C000002150310909F7DD
S1130360DBC0F80186859785019709F0CCC089E147
S113037090E058E042E034E021E05BBBC6E7D1E026
S11303802197F1F700C000004BBBE6E7F1E031979D
S1130390F1F700C000003BBBC6E7D1E02197F1F7BD
S11303A000C000002BBBE6E7F1E03197F1F700C095
S11303B00000019711F78FE493EC0197F1F700C067
S11303C0000086E990E051E044E032E028E05BBBC5
S11303D0C6E7D1E02197F1F700C000004BBBE6E788
S11303E0F1E03197F1F700C000003BBBC6E7D1E074
S11303F02197F1F700C000002BBBE6E7F1E031974D
S1130400F1F700C00000019711F78FE493EC019716
S1130410F1F700C0000089E190E051E044E032E0EF
S113042028E05BBBC6E7D1E02197F1F700C00000EC
S11304304BBBE6E7F1E03197F1F700C000003BBBAE
S1130440C6E7D1E02197F1F700C000002BBBE6E737
S1130450F1E03197F1F700C00000019711F78FE444
S113046093EC0197F1F700C0000087E090E078E09A
S113047062E054E041E022C078BBC6E7D1E02197B6
S1130480F1F700C0000068BBE6E7F1E03197F1F74F
S113049000C0000058BBC6E7D1E02197F1F700C0C7
S11304A0000048BBE6E7F1E03197F1F700C0000037
S11304B02150310909F7019709F452C028E330E0CB
S11304C0DBCF78BBC6E7D1E02197F1F700C000008D
S11304D068BBE6E7F1E03197F1F700C0000058BBD4
S11304E0C6E7D1E02197F1F700C0000048BBE6E77A
S11304F0F1E03197F1F700C000002150310909F70C
S1130500019739F42DC087E090E078E062E054E090
S113051041E028E330E0D5CFEA17FB0709F062CECB
S113052020CF52BBC6E7D1E02197F1F700C000000D
S113053042BBE6E7F1E03197F1F700C0000032BBBF
S1130540C6E7D1E02197F1F700C0000022BBE6E73F
S1130550F1E03197F1F700C00000019711F707C0EF
S113056088E390E050E840E230E420E1DACFDF9124
S1130570CF911F910F91089565E070E050E140E440
S113058030E220E821C052BBE6E7F1E03197F1F711
S113059000C0000042BBE6E7F1E03197F1F700C08C
S11305A0000032BBE6E7F1E03197F1F700C000004C
S11305B022BBE6E7F1E03197F1F700C000000197B4
S11305C011F76150710919F088E390E0DCCF0895C8
S11305D0CF93DF93CDB7DEB7C254D1090FB6F894E9
S11305E0DEBF0FBECDBF60E679E080E090E00E9400
S11305F07A006E0185E1C80ED11CFE0131967F019F
S11306008F010E948200F80181938F01CE16DF06CC
S1130610C1F7F701828190E0C097BC01660F771F94
S1130620880F991F880F991F880F991F860F971F8E
S1130630638170E060537109680F791F208130E095
S113064020533109C901880F991F220F331F220F2C
S1130650331F220F331F280F391F818190E0C09769
S1130660AE014D5C5F4F820F931F0E948600CE0146
S1130670C3960E94E100F4E0EF0EF11CEC14FD04BB
S113068041F60E94BC02B9CFA1E21A2EAA1BBB1BE1
S1130690FD010DC0AA1FBB1FEE1FFF1FA217B3074A
S11306A0E407F50720F0A21BB30BE40BF50B661F60
S11306B0771F881F991F1A9469F760957095809524
S11306C090959B01AC01BD01CF010895F894FFCF33
S9030000FC
