S00F000046696E616C20322E73726563D9
S11300000C942A000C943C000C943C000C943C008E
S11300100C943C000C943C000C943C000C943C006C
S11300200C943C000C943C000C943C000C943C005C
S11300300C943C000C943C000C943C000C943C004C
S11300400C943C000C943C000C943C000C943C003C
S11300500C943C0011241FBECFE5D8E0DEBFCDBF19
S113006020E0A0E6B0E001C01D92AD3AB207E1F78E
S11300700E947B020C94D1020C9400000F931F93F6
S11300808B019C01DC01CB0180569940A109B10987
S1130090813A984BA140B10570F580E090E0DC0115
S11300A0801B910BA20BB30B880F991FAA1FBB1FB8
S11300B0880F991FAA1FBB1F880F991FAA1FBB1F58
S11300C0BC01CD01605C7D4B804F9F4F000F111F21
S11300D0221F331F000F111F221F331FA901980174
S11300E0220F331F441F551F220F331F441F551F58
S11300F00E94AF0202C026E030E029B930BD1F9152
S11301000F91089528E12AB926E820BD1BB80E9462
S11301103E0008955F9BFECF8CB10895CF93DF938B
S1130120DC01EC0120E030E040E050E099919C32A9
S113013031F0FB01E40FF51F90834F5F5F4F2F5F9A
S11301403F4FFD0101900020E9F73197EA1BFB0BBB
S1130150E217F30758F7DF91CF910895DA01FA0116
S1130160485F5F4F9C0121703078332334F4215071
S113017031092E6F3F6F2F5F3F4F219331939C01C5
S1130180992314F42F5F3F4FC90195958795E41780
S1130190F50741F7CB0181709078992324F40197F6
S11301A08E6F9F6F019619969C938E931897CB012F
S11301B077230CF40196959587958170907899230F
S11301C024F401978E6F9F6F01961B969C938E93D8
S11301D01A97CB0199230CF40396959587959595D9
S11301E0879581709078992324F401978E6F9F6F7F
S11301F001961D969C938E931C9708950F931F93BD
S1130200CF93DF938C019FEF91BB97BB94BB9ABBB9
S1130210F801D8011E9661E054E042E098E0219193
S113022031912130310509F043C022E330E06BBB4A
S1130230C3EFD1E02197F1F700C000005BBBC3EF2F
S1130240D1E02197F1F700C000004BBBC3EFD1E030
S11302502197F1F700C000009BBBC3EFD1E02197C9
S1130260F1F700C000002150310909F728E330E01C
S113027068BBCBEBD2E02197F1F700C0000058BB7C
S1130280CBEBD2E02197F1F700C0000048BBCBEBE9
S1130290D2E02197F1F700C0000098BBCBEBD2E08D
S11302A02197F1F700C000002150310909F7C1C0BE
S11302B028E330E068BBCBEBD2E02197F1F700C034
S11302C0000058BBCBEBD2E02197F1F700C000004F
S11302D048BBCBEBD2E02197F1F700C0000098BBFC
S11302E0CBEBD2E02197F1F700C000002150310997
S11302F009F79FC058BBEBEBF2E03197F1F700C070
S1130300000048BBCBEBD2E02197F1F700C000001E
S113031038BBEBEBF2E03197F1F700C0000028BBEB
S1130320CBEBD2E02197F1F700C00000019711F761
S1130330F80186859785019709F072C082E390E001
S113034051E044E032E028E05BBBC3EFD1E0219709
S1130350F1F700C000004BBBE3EFF1E03197F1F798
S113036000C000003BBBC3EFD1E02197F1F700C010
S113037000002BBBE3EFF1E03197F1F700C0000080
S1130380019711F788E090E078E062E054E041E002
S113039022C078BBCBEBD2E02197F1F700C000007C
S11303A068BBEBEBF2E03197F1F700C0000058BBFB
S11303B0CBEBD2E02197F1F700C0000048BBEBEB98
S11303C0F2E03197F1F700C000002150310909F73C
S11303D0019709F458C028E330E0DBCF78BBCBEBBE
S11303E0D2E02197F1F700C0000068BBEBEBF2E02C
S11303F03197F1F700C0000058BBCBEBD2E0219756
S1130400F1F700C0000048BBEBEBF2E03197F1F7E5
S113041000C000002150310909F7019739F433C0B5
S113042088E090E078E062E054E041E028E330E0E6
S1130430D5CFEA17FB0709F0F2CE88E390E051E04C
S113044044E032E028E056CF52BBCBEBD2E0219718
S1130450F1F700C0000042BBEBEBF2E03197F1F79B
S113046000C0000032BBCBEBD2E02197F1F700C013
S1130470000022BBEBEBF2E03197F1F700C0000083
S1130480019711F707C088E390E050E840E230E4B8
S113049020E1DACFDF91CF911F910F91089564E0AD
S11304A070E050E140E430E220E821C052BBEBEBC5
S11304B0F2E03197F1F700C0000042BBEBEBF2E051
S11304C03197F1F700C0000032BBEBEBF2E031975B
S11304D0F1F700C0000022BBEBEBF2E03197F1F73B
S11304E000C00000019711F76150710919F088E309
S11304F090E0DCCF089560E679E080E090E00E942F
S113050082008FEF87BB88BB0EE810E00F2EFCE75C
S1130510EF2EF0E0FF2EF02DCBE7D0E00E948A0012
S11305208993C017D107D1F760E770E08BE790E0BB
S11305300E948E00C0E7D0E0888190E0C09740E63A
S113054050E0BC010E94AE0080E690E00E94FE00F4
S11305502396CE15DF0581F70E944F02DDCFA1E27D
S11305601A2EAA1BBB1BFD010DC0AA1FBB1FEE1F29
S1130570FF1FA217B307E407F50720F0A21BB30B74
S1130580E40BF50B661F771F881F991F1A9469F7F0
S113059060957095809590959B01AC01BD01CF014C
S10905A00895F894FFCF5A
S9030000FC
